{
  "contractName": "Invoice",
  "abi": [
    {
      "constant": false,
      "inputs": [],
      "name": "kill",
      "outputs": [],
      "payable": false,
      "stateMutability": "nonpayable",
      "type": "function"
    },
    {
      "constant": false,
      "inputs": [
        {
          "name": "invoiceID",
          "type": "string"
        },
        {
          "name": "hash",
          "type": "string"
        }
      ],
      "name": "addInvoice",
      "outputs": [
        {
          "name": "",
          "type": "bool"
        }
      ],
      "payable": false,
      "stateMutability": "nonpayable",
      "type": "function"
    },
    {
      "constant": true,
      "inputs": [
        {
          "name": "hash",
          "type": "string"
        }
      ],
      "name": "isHashExists",
      "outputs": [
        {
          "name": "",
          "type": "bool"
        }
      ],
      "payable": false,
      "stateMutability": "view",
      "type": "function"
    },
    {
      "constant": true,
      "inputs": [
        {
          "name": "hash",
          "type": "string"
        }
      ],
      "name": "getInvoiceID",
      "outputs": [
        {
          "name": "",
          "type": "string"
        }
      ],
      "payable": false,
      "stateMutability": "view",
      "type": "function"
    },
    {
      "constant": true,
      "inputs": [],
      "name": "getOwner",
      "outputs": [
        {
          "name": "",
          "type": "address"
        }
      ],
      "payable": false,
      "stateMutability": "view",
      "type": "function"
    }
  ],
  "bytecode": "0x6080604052336000806101000a81548173ffffffffffffffffffffffffffffffffffffffff021916908373ffffffffffffffffffffffffffffffffffffffff160217905550610808806100536000396000f30060806040526004361061006d576000357c0100000000000000000000000000000000000000000000000000000000900463ffffffff168063094e9efb146100725780631c69487c146100f35780631d31f41d146101ba57806341c0e1b51461029c578063893d20e8146102b3575b600080fd5b34801561007e57600080fd5b506100d9600480360381019080803590602001908201803590602001908080601f016020809104026020016040519081016040528093929190818152602001838380828437820191505050505050919291929050505061030a565b604051808215151515815260200191505060405180910390f35b3480156100ff57600080fd5b506101a0600480360381019080803590602001908201803590602001908080601f0160208091040260200160405190810160405280939291908181526020018383808284378201915050505050509192919290803590602001908201803590602001908080601f01602080910402602001604051908101604052809392919081815260200183838082843782019150505050505091929192905050506103a0565b604051808215151515815260200191505060405180910390f35b3480156101c657600080fd5b50610221600480360381019080803590602001908201803590602001908080601f0160208091040260200160405190810160405280939291908181526020018383808284378201915050505050509192919290505050610545565b6040518080602001828103825283818151815260200191508051906020019080838360005b83811015610261578082015181840152602081019050610246565b50505050905090810190601f16801561028e5780820380516001836020036101000a031916815260200191505b509250505060405180910390f35b3480156102a857600080fd5b506102b161067d565b005b3480156102bf57600080fd5b506102c861070e565b604051808273ffffffffffffffffffffffffffffffffffffffff1673ffffffffffffffffffffffffffffffffffffffff16815260200191505060405180910390f35b60006001826040518082805190602001908083835b602083101515610344578051825260208201915060208101905060208303925061031f565b6001836020036101000a038019825116818451168082178552505050505050905001915050908152602001604051809103902060000160009054906101000a900460ff1615610396576001905061039b565b600090505b919050565b6000600180836040518082805190602001908083835b6020831015156103db57805182526020820191506020810190506020830392506103b6565b6001836020036101000a038019825116818451168082178552505050505050905001915050908152602001604051809103902060000160006101000a81548160ff021916908315150217905550826001836040518082805190602001908083835b602083101515610461578051825260208201915060208101905060208303925061043c565b6001836020036101000a038019825116818451168082178552505050505050905001915050908152602001604051809103902060010190805190602001906104aa929190610737565b5060026001836040518082805190602001908083835b6020831015156104e557805182526020820191506020810190506020830392506104c0565b6001836020036101000a038019825116818451168082178552505050505050905001915050908152602001604051809103902060020160006101000a81548160ff0219169083600281111561053657fe5b02179055506001905092915050565b60606105508261030a565b151561056e5760206040519081016040528060008152509050610678565b6001826040518082805190602001908083835b6020831015156105a65780518252602082019150602081019050602083039250610581565b6001836020036101000a03801982511681845116808217855250505050505090500191505090815260200160405180910390206001018054600181600116156101000203166002900480601f0160208091040260200160405190810160405280929190818152602001828054600181600116156101000203166002900480156106705780601f1061064557610100808354040283529160200191610670565b820191906000526020600020905b81548152906001019060200180831161065357829003601f168201915b505050505090505b919050565b6000809054906101000a900473ffffffffffffffffffffffffffffffffffffffff1673ffffffffffffffffffffffffffffffffffffffff163373ffffffffffffffffffffffffffffffffffffffff16141561070c576000809054906101000a900473ffffffffffffffffffffffffffffffffffffffff1673ffffffffffffffffffffffffffffffffffffffff16ff5b565b60008060009054906101000a900473ffffffffffffffffffffffffffffffffffffffff16905090565b828054600181600116156101000203166002900490600052602060002090601f016020900481019282601f1061077857805160ff19168380011785556107a6565b828001600101855582156107a6579182015b828111156107a557825182559160200191906001019061078a565b5b5090506107b391906107b7565b5090565b6107d991905b808211156107d55760008160009055506001016107bd565b5090565b905600a165627a7a723058201c39e6cd594da349f5a0c75e7b21aa2f71d250bd24ff97b224e714fe3a54434f0029",
  "source": "pragma solidity 0.4.24;\n\ncontract Mortal {\n    /* Define variable owner of the type address */\n    address internal owner;\n\n    /* This function is executed at initialization and sets the owner of the contract */\n    constructor() public { owner = msg.sender; }\n\n    /* Function to recover the funds on the contract */\n    function kill() public { if (msg.sender == owner) selfdestruct(owner); }\n}\n\ncontract Invoice is Mortal {\n\n    enum Status {\n\t\tINACTIVE,\n\t\tPENDING,\n\t\tACTIVE\n\t}\n\n\tstruct InvoiceStruct {\n\t\tbool isExist;\n        string invoiceID;\n\t\tStatus status;\n\t}\n\n    mapping (string => InvoiceStruct) invoices;\n\n    /* Define variable greeting of the type string */\n    // string private greeting;\n    // uint32 private myNumber;\n\n    /* This runs when the contract is executed */\n    // constructor(string _greeting) public {\n    //     greeting = _greeting;\n    //     myNumber = 0;\n    // }\n\n    /* greet function */\n    function addInvoice(string invoiceID, string hash) public returns (bool) {\n        invoices[hash].isExist = true;\n        invoices[hash].invoiceID = invoiceID;\n        invoices[hash].status = Status.ACTIVE;\n\n        return true;\n    }\n\n    /* isHashExists function */\n    function isHashExists(string hash) public view returns (bool) {\n        if(invoices[hash].isExist)\n            return true;\n        else   \n            return false;\n    }\n\n    /* getInvoiceID function */\n    function getInvoiceID(string hash) public view returns (string) {\n        if(!isHashExists(hash))\n            return \"\";\n        \n        return invoices[hash].invoiceID;\n    }\n\n    /* getOwner function */\n    function getOwner() public view returns (address) {\n        return owner;\n    }\n}\n",
  "sourcePath": "/Users/rahulgolash/Rahul/Ledgerium/CoreLedgerium/testsmartcontracts/contracts/Invoice.sol",
  "compiler": {
    "name": "solc",
    "version": "0.4.24+commit.e67f0147.Emscripten.clang"
  },
  "schemaVersion": "2.0.1",
  "updatedAt": "2018-12-04T03:38:28.844Z"
}